{
  "_format": "hh-sol-artifact-1",
  "contractName": "ResearchDataRegistry",
  "sourceName": "contracts/ResearchDataRegistry.sol",
  "abi": [
    {
      "inputs": [],
      "stateMutability": "nonpayable",
      "type": "constructor"
    },
    {
      "anonymous": false,
      "inputs": [
        {
          "indexed": true,
          "internalType": "bytes32",
          "name": "researchId",
          "type": "bytes32"
        },
        {
          "indexed": false,
          "internalType": "string",
          "name": "title",
          "type": "string"
        },
        {
          "indexed": false,
          "internalType": "address",
          "name": "researcher",
          "type": "address"
        }
      ],
      "name": "ResearchRegistered",
      "type": "event"
    },
    {
      "anonymous": false,
      "inputs": [
        {
          "indexed": true,
          "internalType": "bytes32",
          "name": "researchId",
          "type": "bytes32"
        },
        {
          "indexed": false,
          "internalType": "address",
          "name": "revoker",
          "type": "address"
        }
      ],
      "name": "ResearchRevoked",
      "type": "event"
    },
    {
      "anonymous": false,
      "inputs": [
        {
          "indexed": false,
          "internalType": "address",
          "name": "researcher",
          "type": "address"
        }
      ],
      "name": "ResearcherAdded",
      "type": "event"
    },
    {
      "anonymous": false,
      "inputs": [
        {
          "indexed": false,
          "internalType": "address",
          "name": "researcher",
          "type": "address"
        }
      ],
      "name": "ResearcherRemoved",
      "type": "event"
    },
    {
      "inputs": [
        {
          "internalType": "address",
          "name": "_researcher",
          "type": "address"
        }
      ],
      "name": "addResearcher",
      "outputs": [],
      "stateMutability": "nonpayable",
      "type": "function"
    },
    {
      "inputs": [
        {
          "internalType": "address",
          "name": "_researcher",
          "type": "address"
        }
      ],
      "name": "getResearchByResearcher",
      "outputs": [
        {
          "internalType": "bytes32[]",
          "name": "",
          "type": "bytes32[]"
        }
      ],
      "stateMutability": "view",
      "type": "function"
    },
    {
      "inputs": [],
      "name": "getResearchCount",
      "outputs": [
        {
          "internalType": "uint256",
          "name": "",
          "type": "uint256"
        }
      ],
      "stateMutability": "view",
      "type": "function"
    },
    {
      "inputs": [
        {
          "internalType": "uint256",
          "name": "_index",
          "type": "uint256"
        }
      ],
      "name": "getResearchIdAtIndex",
      "outputs": [
        {
          "internalType": "bytes32",
          "name": "",
          "type": "bytes32"
        }
      ],
      "stateMutability": "view",
      "type": "function"
    },
    {
      "inputs": [],
      "name": "owner",
      "outputs": [
        {
          "internalType": "address",
          "name": "",
          "type": "address"
        }
      ],
      "stateMutability": "view",
      "type": "function"
    },
    {
      "inputs": [
        {
          "internalType": "string",
          "name": "_title",
          "type": "string"
        },
        {
          "internalType": "string",
          "name": "_description",
          "type": "string"
        },
        {
          "internalType": "string[]",
          "name": "_authors",
          "type": "string[]"
        },
        {
          "internalType": "string",
          "name": "_dataHash",
          "type": "string"
        },
        {
          "internalType": "string",
          "name": "_metadataURI",
          "type": "string"
        }
      ],
      "name": "registerResearch",
      "outputs": [
        {
          "internalType": "bytes32",
          "name": "",
          "type": "bytes32"
        }
      ],
      "stateMutability": "nonpayable",
      "type": "function"
    },
    {
      "inputs": [
        {
          "internalType": "address",
          "name": "_researcher",
          "type": "address"
        }
      ],
      "name": "removeResearcher",
      "outputs": [],
      "stateMutability": "nonpayable",
      "type": "function"
    },
    {
      "inputs": [
        {
          "internalType": "bytes32",
          "name": "",
          "type": "bytes32"
        }
      ],
      "name": "researchEntries",
      "outputs": [
        {
          "internalType": "string",
          "name": "title",
          "type": "string"
        },
        {
          "internalType": "string",
          "name": "description",
          "type": "string"
        },
        {
          "internalType": "string",
          "name": "dataHash",
          "type": "string"
        },
        {
          "internalType": "uint256",
          "name": "timestamp",
          "type": "uint256"
        },
        {
          "internalType": "address",
          "name": "researcher",
          "type": "address"
        },
        {
          "internalType": "bool",
          "name": "isValid",
          "type": "bool"
        },
        {
          "internalType": "string",
          "name": "metadataURI",
          "type": "string"
        }
      ],
      "stateMutability": "view",
      "type": "function"
    },
    {
      "inputs": [
        {
          "internalType": "uint256",
          "name": "",
          "type": "uint256"
        }
      ],
      "name": "researchIds",
      "outputs": [
        {
          "internalType": "bytes32",
          "name": "",
          "type": "bytes32"
        }
      ],
      "stateMutability": "view",
      "type": "function"
    },
    {
      "inputs": [
        {
          "internalType": "address",
          "name": "",
          "type": "address"
        }
      ],
      "name": "researchers",
      "outputs": [
        {
          "internalType": "bool",
          "name": "",
          "type": "bool"
        }
      ],
      "stateMutability": "view",
      "type": "function"
    },
    {
      "inputs": [
        {
          "internalType": "bytes32",
          "name": "_researchId",
          "type": "bytes32"
        }
      ],
      "name": "revokeResearch",
      "outputs": [],
      "stateMutability": "nonpayable",
      "type": "function"
    },
    {
      "inputs": [
        {
          "internalType": "address",
          "name": "_newOwner",
          "type": "address"
        }
      ],
      "name": "transferOwnership",
      "outputs": [],
      "stateMutability": "nonpayable",
      "type": "function"
    },
    {
      "inputs": [
        {
          "internalType": "bytes32",
          "name": "_researchId",
          "type": "bytes32"
        }
      ],
      "name": "verifyResearch",
      "outputs": [
        {
          "internalType": "bool",
          "name": "isValid",
          "type": "bool"
        },
        {
          "components": [
            {
              "internalType": "string",
              "name": "title",
              "type": "string"
            },
            {
              "internalType": "string",
              "name": "description",
              "type": "string"
            },
            {
              "internalType": "string[]",
              "name": "authors",
              "type": "string[]"
            },
            {
              "internalType": "string",
              "name": "dataHash",
              "type": "string"
            },
            {
              "internalType": "uint256",
              "name": "timestamp",
              "type": "uint256"
            },
            {
              "internalType": "address",
              "name": "researcher",
              "type": "address"
            },
            {
              "internalType": "bool",
              "name": "isValid",
              "type": "bool"
            },
            {
              "internalType": "string",
              "name": "metadataURI",
              "type": "string"
            }
          ],
          "internalType": "struct ResearchDataRegistry.ResearchData",
          "name": "research",
          "type": "tuple"
        }
      ],
      "stateMutability": "view",
      "type": "function"
    },
    {
      "inputs": [
        {
          "internalType": "string",
          "name": "_dataHash",
          "type": "string"
        }
      ],
      "name": "verifyResearchByHash",
      "outputs": [
        {
          "internalType": "bool",
          "name": "found",
          "type": "bool"
        },
        {
          "internalType": "bytes32",
          "name": "researchId",
          "type": "bytes32"
        }
      ],
      "stateMutability": "view",
      "type": "function"
    }
  ],
  "bytecode": "0x608060405234801561001057600080fd5b50336000806101000a81548173ffffffffffffffffffffffffffffffffffffffff021916908373ffffffffffffffffffffffffffffffffffffffff16021790555060018060003373ffffffffffffffffffffffffffffffffffffffff1673ffffffffffffffffffffffffffffffffffffffff16815260200190815260200160002060006101000a81548160ff02191690831515021790555061300d806100b76000396000f3fe608060405234801561001057600080fd5b50600436106100ea5760003560e01c80638da5cb5b1161008c578063bf09d39311610066578063bf09d39314610297578063cb44bd60146102b5578063f2fde38b146102eb578063f4abfb3b14610307576100ea565b80638da5cb5b146102195780638f670cb714610237578063becd8b5814610267576100ea565b80632cc286dc116100c85780632cc286dc1461016c57806339f643931461019c5780633d137278146101b85780635036b0e6146101e8576100ea565b806301bc237d146100ef5780630622a4df1461011f57806328bde61514610150575b600080fd5b61010960048036038101906101049190611a9c565b610323565b6040516101169190611ae4565b60405180910390f35b61013960048036038101906101349190611c45565b610343565b604051610147929190611ca7565b60405180910390f35b61016a60048036038101906101659190611a9c565b610417565b005b61018660048036038101906101819190611a9c565b610632565b6040516101939190611d8e565b60405180910390f35b6101b660048036038101906101b19190611ddc565b6106c9565b005b6101d260048036038101906101cd9190611e3f565b610935565b6040516101df9190611e6c565b60405180910390f35b61020260048036038101906101fd9190611ddc565b6109a4565b6040516102109291906120c1565b60405180910390f35b610221610dea565b60405161022e9190612100565b60405180910390f35b610251600480360381019061024c9190612201565b610e0e565b60405161025e9190611e6c565b60405180910390f35b610281600480360381019061027c9190611e3f565b6112b9565b60405161028e9190611e6c565b60405180910390f35b61029f6112dd565b6040516102ac9190612317565b60405180910390f35b6102cf60048036038101906102ca9190611ddc565b6112ea565b6040516102e2979695949392919061237c565b60405180910390f35b61030560048036038101906103009190611a9c565b611579565b005b610321600480360381019061031c9190611a9c565b6116b9565b005b60016020528060005260406000206000915054906101000a900460ff1681565b60008060005b6003805490508110156104035760006003828154811061036c5761036b612407565b5b906000526020600020015490508460405160200161038a9190612472565b60405160208183030381529060405280519060200120600260008381526020019081526020016000206003016040516020016103c69190612581565b60405160208183030381529060405280519060200120036103ef57600181935093505050610412565b5080806103fb906125c7565b915050610349565b506000808060001b9050915091505b915091565b60008054906101000a900473ffffffffffffffffffffffffffffffffffffffff1673ffffffffffffffffffffffffffffffffffffffff163373ffffffffffffffffffffffffffffffffffffffff16146104a5576040517f08c379a000000000000000000000000000000000000000000000000000000000815260040161049c90612681565b60405180910390fd5b600073ffffffffffffffffffffffffffffffffffffffff168173ffffffffffffffffffffffffffffffffffffffff1603610514576040517f08c379a000000000000000000000000000000000000000000000000000000000815260040161050b906126ed565b60405180910390fd5b600160008273ffffffffffffffffffffffffffffffffffffffff1673ffffffffffffffffffffffffffffffffffffffff16815260200190815260200160002060009054906101000a900460ff16156105a1576040517f08c379a000000000000000000000000000000000000000000000000000000000815260040161059890612759565b60405180910390fd5b60018060008373ffffffffffffffffffffffffffffffffffffffff1673ffffffffffffffffffffffffffffffffffffffff16815260200190815260200160002060006101000a81548160ff0219169083151502179055507f534d4d16bc7e767235008f9a9e169fbf0e98449b93263dd503c94a69fa20f3e9816040516106279190612100565b60405180910390a150565b6060600460008373ffffffffffffffffffffffffffffffffffffffff1673ffffffffffffffffffffffffffffffffffffffff1681526020019081526020016000208054806020026020016040519081016040528092919081815260200182805480156106bd57602002820191906000526020600020905b8154815260200190600101908083116106a9575b50505050509050919050565b600073ffffffffffffffffffffffffffffffffffffffff166002600083815260200190815260200160002060050160009054906101000a900473ffffffffffffffffffffffffffffffffffffffff1673ffffffffffffffffffffffffffffffffffffffff160361076e576040517f08c379a0000000000000000000000000000000000000000000000000000000008152600401610765906127c5565b60405180910390fd5b6002600082815260200190815260200160002060050160149054906101000a900460ff166107d1576040517f08c379a00000000000000000000000000000000000000000000000000000000081526004016107c890612831565b60405180910390fd5b3373ffffffffffffffffffffffffffffffffffffffff166002600083815260200190815260200160002060050160009054906101000a900473ffffffffffffffffffffffffffffffffffffffff1673ffffffffffffffffffffffffffffffffffffffff16148061088c575060008054906101000a900473ffffffffffffffffffffffffffffffffffffffff1673ffffffffffffffffffffffffffffffffffffffff163373ffffffffffffffffffffffffffffffffffffffff16145b6108cb576040517f08c379a00000000000000000000000000000000000000000000000000000000081526004016108c2906128c3565b60405180910390fd5b60006002600083815260200190815260200160002060050160146101000a81548160ff021916908315150217905550807f901a87d3da1630257423b1863957bd23a7c483f72c9275ae1f4fa2d5af86b21d3360405161092a9190612100565b60405180910390a250565b6000600380549050821061097e576040517f08c379a00000000000000000000000000000000000000000000000000000000081526004016109759061292f565b60405180910390fd5b6003828154811061099257610991612407565b5b90600052602060002001549050919050565b60006109ae6118f3565b60026000848152602001908152602001600020604051806101000160405290816000820180546109dd906124b8565b80601f0160208091040260200160405190810160405280929190818152602001828054610a09906124b8565b8015610a565780601f10610a2b57610100808354040283529160200191610a56565b820191906000526020600020905b815481529060010190602001808311610a3957829003601f168201915b50505050508152602001600182018054610a6f906124b8565b80601f0160208091040260200160405190810160405280929190818152602001828054610a9b906124b8565b8015610ae85780601f10610abd57610100808354040283529160200191610ae8565b820191906000526020600020905b815481529060010190602001808311610acb57829003601f168201915b5050505050815260200160028201805480602002602001604051908101604052809291908181526020016000905b82821015610bc2578382906000526020600020018054610b35906124b8565b80601f0160208091040260200160405190810160405280929190818152602001828054610b61906124b8565b8015610bae5780601f10610b8357610100808354040283529160200191610bae565b820191906000526020600020905b815481529060010190602001808311610b9157829003601f168201915b505050505081526020019060010190610b16565b505050508152602001600382018054610bda906124b8565b80601f0160208091040260200160405190810160405280929190818152602001828054610c06906124b8565b8015610c535780601f10610c2857610100808354040283529160200191610c53565b820191906000526020600020905b815481529060010190602001808311610c3657829003601f168201915b50505050508152602001600482015481526020016005820160009054906101000a900473ffffffffffffffffffffffffffffffffffffffff1673ffffffffffffffffffffffffffffffffffffffff1673ffffffffffffffffffffffffffffffffffffffff1681526020016005820160149054906101000a900460ff16151515158152602001600682018054610ce7906124b8565b80601f0160208091040260200160405190810160405280929190818152602001828054610d13906124b8565b8015610d605780601f10610d3557610100808354040283529160200191610d60565b820191906000526020600020905b815481529060010190602001808311610d4357829003601f168201915b5050505050815250509050600073ffffffffffffffffffffffffffffffffffffffff168160a0015173ffffffffffffffffffffffffffffffffffffffff1603610dde576040517f08c379a0000000000000000000000000000000000000000000000000000000008152600401610dd5906127c5565b60405180910390fd5b8060c001519150915091565b60008054906101000a900473ffffffffffffffffffffffffffffffffffffffff1681565b6000600160003373ffffffffffffffffffffffffffffffffffffffff1673ffffffffffffffffffffffffffffffffffffffff16815260200190815260200160002060009054906101000a900460ff1680610eb3575060008054906101000a900473ffffffffffffffffffffffffffffffffffffffff1673ffffffffffffffffffffffffffffffffffffffff163373ffffffffffffffffffffffffffffffffffffffff16145b610ef2576040517f08c379a0000000000000000000000000000000000000000000000000000000008152600401610ee9906129c1565b60405180910390fd5b6000865111610f36576040517f08c379a0000000000000000000000000000000000000000000000000000000008152600401610f2d90612a2d565b60405180910390fd5b6000835111610f7a576040517f08c379a0000000000000000000000000000000000000000000000000000000008152600401610f7190612a99565b60405180910390fd5b6000845111610fbe576040517f08c379a0000000000000000000000000000000000000000000000000000000008152600401610fb590612b05565b60405180910390fd5b600086843342604051602001610fd79493929190612b8e565b604051602081830303815290604052805190602001209050600073ffffffffffffffffffffffffffffffffffffffff166002600083815260200190815260200160002060050160009054906101000a900473ffffffffffffffffffffffffffffffffffffffff1673ffffffffffffffffffffffffffffffffffffffff1614611094576040517f08c379a000000000000000000000000000000000000000000000000000000000815260040161108b90612c20565b60405180910390fd5b6040518061010001604052808881526020018781526020018681526020018581526020014281526020013373ffffffffffffffffffffffffffffffffffffffff1681526020016001151581526020018481525060026000838152602001908152602001600020600082015181600001908161110f9190612dd7565b5060208201518160010190816111259190612dd7565b506040820151816002019080519060200190611142929190611950565b5060608201518160030190816111589190612dd7565b506080820151816004015560a08201518160050160006101000a81548173ffffffffffffffffffffffffffffffffffffffff021916908373ffffffffffffffffffffffffffffffffffffffff16021790555060c08201518160050160146101000a81548160ff02191690831515021790555060e08201518160060190816111df9190612dd7565b509050506003819080600181540180825580915050600190039060005260206000200160009091909190915055600460003373ffffffffffffffffffffffffffffffffffffffff1673ffffffffffffffffffffffffffffffffffffffff168152602001908152602001600020819080600181540180825580915050600190039060005260206000200160009091909190915055807f7cc7ba38cbf026167aa71f7e5bbeea9ae05f860856aee2e3e8e0949b8d4fa6c988336040516112a4929190612ea9565b60405180910390a28091505095945050505050565b600381815481106112c957600080fd5b906000526020600020016000915090505481565b6000600380549050905090565b600260205280600052604060002060009150905080600001805461130d906124b8565b80601f0160208091040260200160405190810160405280929190818152602001828054611339906124b8565b80156113865780601f1061135b57610100808354040283529160200191611386565b820191906000526020600020905b81548152906001019060200180831161136957829003601f168201915b50505050509080600101805461139b906124b8565b80601f01602080910402602001604051908101604052809291908181526020018280546113c7906124b8565b80156114145780601f106113e957610100808354040283529160200191611414565b820191906000526020600020905b8154815290600101906020018083116113f757829003601f168201915b505050505090806003018054611429906124b8565b80601f0160208091040260200160405190810160405280929190818152602001828054611455906124b8565b80156114a25780601f10611477576101008083540402835291602001916114a2565b820191906000526020600020905b81548152906001019060200180831161148557829003601f168201915b5050505050908060040154908060050160009054906101000a900473ffffffffffffffffffffffffffffffffffffffff16908060050160149054906101000a900460ff16908060060180546114f6906124b8565b80601f0160208091040260200160405190810160405280929190818152602001828054611522906124b8565b801561156f5780601f106115445761010080835404028352916020019161156f565b820191906000526020600020905b81548152906001019060200180831161155257829003601f168201915b5050505050905087565b60008054906101000a900473ffffffffffffffffffffffffffffffffffffffff1673ffffffffffffffffffffffffffffffffffffffff163373ffffffffffffffffffffffffffffffffffffffff1614611607576040517f08c379a00000000000000000000000000000000000000000000000000000000081526004016115fe90612681565b60405180910390fd5b600073ffffffffffffffffffffffffffffffffffffffff168173ffffffffffffffffffffffffffffffffffffffff1603611676576040517f08c379a000000000000000000000000000000000000000000000000000000000815260040161166d906126ed565b60405180910390fd5b806000806101000a81548173ffffffffffffffffffffffffffffffffffffffff021916908373ffffffffffffffffffffffffffffffffffffffff16021790555050565b60008054906101000a900473ffffffffffffffffffffffffffffffffffffffff1673ffffffffffffffffffffffffffffffffffffffff163373ffffffffffffffffffffffffffffffffffffffff1614611747576040517f08c379a000000000000000000000000000000000000000000000000000000000815260040161173e90612681565b60405180910390fd5b600160008273ffffffffffffffffffffffffffffffffffffffff1673ffffffffffffffffffffffffffffffffffffffff16815260200190815260200160002060009054906101000a900460ff166117d3576040517f08c379a00000000000000000000000000000000000000000000000000000000081526004016117ca90612f25565b60405180910390fd5b60008054906101000a900473ffffffffffffffffffffffffffffffffffffffff1673ffffffffffffffffffffffffffffffffffffffff168173ffffffffffffffffffffffffffffffffffffffff1603611861576040517f08c379a000000000000000000000000000000000000000000000000000000000815260040161185890612fb7565b60405180910390fd5b6000600160008373ffffffffffffffffffffffffffffffffffffffff1673ffffffffffffffffffffffffffffffffffffffff16815260200190815260200160002060006101000a81548160ff0219169083151502179055507f6506ca40d6cd95384cb079e95c717ee67f58d03cf01ee3477cfcd38e0928697f816040516118e89190612100565b60405180910390a150565b6040518061010001604052806060815260200160608152602001606081526020016060815260200160008152602001600073ffffffffffffffffffffffffffffffffffffffff168152602001600015158152602001606081525090565b828054828255906000526020600020908101928215611998579160200282015b828111156119975782518290816119879190612dd7565b5091602001919060010190611970565b5b5090506119a591906119a9565b5090565b5b808211156119c957600081816119c091906119cd565b506001016119aa565b5090565b5080546119d9906124b8565b6000825580601f106119eb5750611a0a565b601f016020900490600052602060002090810190611a099190611a0d565b5b50565b5b80821115611a26576000816000905550600101611a0e565b5090565b6000604051905090565b600080fd5b600080fd5b600073ffffffffffffffffffffffffffffffffffffffff82169050919050565b6000611a6982611a3e565b9050919050565b611a7981611a5e565b8114611a8457600080fd5b50565b600081359050611a9681611a70565b92915050565b600060208284031215611ab257611ab1611a34565b5b6000611ac084828501611a87565b91505092915050565b60008115159050919050565b611ade81611ac9565b82525050565b6000602082019050611af96000830184611ad5565b92915050565b600080fd5b600080fd5b6000601f19601f8301169050919050565b7f4e487b7100000000000000000000000000000000000000000000000000000000600052604160045260246000fd5b611b5282611b09565b810181811067ffffffffffffffff82111715611b7157611b70611b1a565b5b80604052505050565b6000611b84611a2a565b9050611b908282611b49565b919050565b600067ffffffffffffffff821115611bb057611baf611b1a565b5b611bb982611b09565b9050602081019050919050565b82818337600083830152505050565b6000611be8611be384611b95565b611b7a565b905082815260208101848484011115611c0457611c03611b04565b5b611c0f848285611bc6565b509392505050565b600082601f830112611c2c57611c2b611aff565b5b8135611c3c848260208601611bd5565b91505092915050565b600060208284031215611c5b57611c5a611a34565b5b600082013567ffffffffffffffff811115611c7957611c78611a39565b5b611c8584828501611c17565b91505092915050565b6000819050919050565b611ca181611c8e565b82525050565b6000604082019050611cbc6000830185611ad5565b611cc96020830184611c98565b9392505050565b600081519050919050565b600082825260208201905092915050565b6000819050602082019050919050565b611d0581611c8e565b82525050565b6000611d178383611cfc565b60208301905092915050565b6000602082019050919050565b6000611d3b82611cd0565b611d458185611cdb565b9350611d5083611cec565b8060005b83811015611d81578151611d688882611d0b565b9750611d7383611d23565b925050600181019050611d54565b5085935050505092915050565b60006020820190508181036000830152611da88184611d30565b905092915050565b611db981611c8e565b8114611dc457600080fd5b50565b600081359050611dd681611db0565b92915050565b600060208284031215611df257611df1611a34565b5b6000611e0084828501611dc7565b91505092915050565b6000819050919050565b611e1c81611e09565b8114611e2757600080fd5b50565b600081359050611e3981611e13565b92915050565b600060208284031215611e5557611e54611a34565b5b6000611e6384828501611e2a565b91505092915050565b6000602082019050611e816000830184611c98565b92915050565b600081519050919050565b600082825260208201905092915050565b60005b83811015611ec1578082015181840152602081019050611ea6565b60008484015250505050565b6000611ed882611e87565b611ee28185611e92565b9350611ef2818560208601611ea3565b611efb81611b09565b840191505092915050565b600081519050919050565b600082825260208201905092915050565b6000819050602082019050919050565b6000611f3e8383611ecd565b905092915050565b6000602082019050919050565b6000611f5e82611f06565b611f688185611f11565b935083602082028501611f7a85611f22565b8060005b85811015611fb65784840389528151611f978582611f32565b9450611fa283611f46565b925060208a01995050600181019050611f7e565b50829750879550505050505092915050565b611fd181611e09565b82525050565b611fe081611a5e565b82525050565b611fef81611ac9565b82525050565b60006101008301600083015184820360008601526120138282611ecd565b9150506020830151848203602086015261202d8282611ecd565b915050604083015184820360408601526120478282611f53565b915050606083015184820360608601526120618282611ecd565b91505060808301516120766080860182611fc8565b5060a083015161208960a0860182611fd7565b5060c083015161209c60c0860182611fe6565b5060e083015184820360e08601526120b48282611ecd565b9150508091505092915050565b60006040820190506120d66000830185611ad5565b81810360208301526120e88184611ff5565b90509392505050565b6120fa81611a5e565b82525050565b600060208201905061211560008301846120f1565b92915050565b600067ffffffffffffffff82111561213657612135611b1a565b5b602082029050602081019050919050565b600080fd5b600061215f61215a8461211b565b611b7a565b9050808382526020820190506020840283018581111561218257612181612147565b5b835b818110156121c957803567ffffffffffffffff8111156121a7576121a6611aff565b5b8086016121b48982611c17565b85526020850194505050602081019050612184565b5050509392505050565b600082601f8301126121e8576121e7611aff565b5b81356121f884826020860161214c565b91505092915050565b600080600080600060a0868803121561221d5761221c611a34565b5b600086013567ffffffffffffffff81111561223b5761223a611a39565b5b61224788828901611c17565b955050602086013567ffffffffffffffff81111561226857612267611a39565b5b61227488828901611c17565b945050604086013567ffffffffffffffff81111561229557612294611a39565b5b6122a1888289016121d3565b935050606086013567ffffffffffffffff8111156122c2576122c1611a39565b5b6122ce88828901611c17565b925050608086013567ffffffffffffffff8111156122ef576122ee611a39565b5b6122fb88828901611c17565b9150509295509295909350565b61231181611e09565b82525050565b600060208201905061232c6000830184612308565b92915050565b600082825260208201905092915050565b600061234e82611e87565b6123588185612332565b9350612368818560208601611ea3565b61237181611b09565b840191505092915050565b600060e0820190508181036000830152612396818a612343565b905081810360208301526123aa8189612343565b905081810360408301526123be8188612343565b90506123cd6060830187612308565b6123da60808301866120f1565b6123e760a0830185611ad5565b81810360c08301526123f98184612343565b905098975050505050505050565b7f4e487b7100000000000000000000000000000000000000000000000000000000600052603260045260246000fd5b600081905092915050565b600061244c82611e87565b6124568185612436565b9350612466818560208601611ea3565b80840191505092915050565b600061247e8284612441565b915081905092915050565b7f4e487b7100000000000000000000000000000000000000000000000000000000600052602260045260246000fd5b600060028204905060018216806124d057607f821691505b6020821081036124e3576124e2612489565b5b50919050565b60008190508160005260206000209050919050565b6000815461250b816124b8565b6125158186612436565b94506001821660008114612530576001811461254557612578565b60ff1983168652811515820286019350612578565b61254e856124e9565b60005b8381101561257057815481890152600182019150602081019050612551565b838801955050505b50505092915050565b600061258d82846124fe565b915081905092915050565b7f4e487b7100000000000000000000000000000000000000000000000000000000600052601160045260246000fd5b60006125d282611e09565b91507fffffffffffffffffffffffffffffffffffffffffffffffffffffffffffffffff820361260457612603612598565b5b600182019050919050565b7f4f6e6c7920746865206f776e65722063616e2063616c6c20746869732066756e60008201527f6374696f6e000000000000000000000000000000000000000000000000000000602082015250565b600061266b602583612332565b91506126768261260f565b604082019050919050565b6000602082019050818103600083015261269a8161265e565b9050919050565b7f496e76616c696420616464726573730000000000000000000000000000000000600082015250565b60006126d7600f83612332565b91506126e2826126a1565b602082019050919050565b60006020820190508181036000830152612706816126ca565b9050919050565b7f4164647265737320697320616c72656164792061207265736561726368657200600082015250565b6000612743601f83612332565b915061274e8261270d565b602082019050919050565b6000602082019050818103600083015261277281612736565b9050919050565b7f526573656172636820646f6573206e6f74206578697374000000000000000000600082015250565b60006127af601783612332565b91506127ba82612779565b602082019050919050565b600060208201905081810360008301526127de816127a2565b9050919050565b7f526573656172636820697320616c7265616479207265766f6b65640000000000600082015250565b600061281b601b83612332565b9150612826826127e5565b602082019050919050565b6000602082019050818103600083015261284a8161280e565b9050919050565b7f4f6e6c79207468652072657365617263686572206f72206f776e65722063616e60008201527f207265766f6b6520746869732072657365617263680000000000000000000000602082015250565b60006128ad603583612332565b91506128b882612851565b604082019050919050565b600060208201905081810360008301526128dc816128a0565b9050919050565b7f496e646578206f7574206f6620626f756e647300000000000000000000000000600082015250565b6000612919601383612332565b9150612924826128e3565b602082019050919050565b600060208201905081810360008301526129488161290c565b9050919050565b7f4f6e6c7920617574686f72697a65642072657365617263686572732063616e2060008201527f63616c6c20746869732066756e6374696f6e0000000000000000000000000000602082015250565b60006129ab603283612332565b91506129b68261294f565b604082019050919050565b600060208201905081810360008301526129da8161299e565b9050919050565b7f5469746c652063616e6e6f7420626520656d7074790000000000000000000000600082015250565b6000612a17601583612332565b9150612a22826129e1565b602082019050919050565b60006020820190508181036000830152612a4681612a0a565b9050919050565b7f4461746120686173682063616e6e6f7420626520656d70747900000000000000600082015250565b6000612a83601983612332565b9150612a8e82612a4d565b602082019050919050565b60006020820190508181036000830152612ab281612a76565b9050919050565b7f4174206c65617374206f6e6520617574686f7220697320726571756972656400600082015250565b6000612aef601f83612332565b9150612afa82612ab9565b602082019050919050565b60006020820190508181036000830152612b1e81612ae2565b9050919050565b60008160601b9050919050565b6000612b3d82612b25565b9050919050565b6000612b4f82612b32565b9050919050565b612b67612b6282611a5e565b612b44565b82525050565b6000819050919050565b612b88612b8382611e09565b612b6d565b82525050565b6000612b9a8287612441565b9150612ba68286612441565b9150612bb28285612b56565b601482019150612bc28284612b77565b60208201915081905095945050505050565b7f526573656172636820494420616c726561647920657869737473000000000000600082015250565b6000612c0a601a83612332565b9150612c1582612bd4565b602082019050919050565b60006020820190508181036000830152612c3981612bfd565b9050919050565b60006020601f8301049050919050565b600082821b905092915050565b600060088302612c8d7fffffffffffffffffffffffffffffffffffffffffffffffffffffffffffffffff82612c50565b612c978683612c50565b95508019841693508086168417925050509392505050565b6000819050919050565b6000612cd4612ccf612cca84611e09565b612caf565b611e09565b9050919050565b6000819050919050565b612cee83612cb9565b612d02612cfa82612cdb565b848454612c5d565b825550505050565b600090565b612d17612d0a565b612d22818484612ce5565b505050565b5b81811015612d4657612d3b600082612d0f565b600181019050612d28565b5050565b601f821115612d8b57612d5c816124e9565b612d6584612c40565b81016020851015612d74578190505b612d88612d8085612c40565b830182612d27565b50505b505050565b600082821c905092915050565b6000612dae60001984600802612d90565b1980831691505092915050565b6000612dc78383612d9d565b9150826002028217905092915050565b612de082611e87565b67ffffffffffffffff811115612df957612df8611b1a565b5b612e0382546124b8565b612e0e828285612d4a565b600060209050601f831160018114612e415760008415612e2f578287015190505b612e398582612dbb565b865550612ea1565b601f198416612e4f866124e9565b60005b82811015612e7757848901518255600182019150602085019450602081019050612e52565b86831015612e945784890151612e90601f891682612d9d565b8355505b6001600288020188555050505b505050505050565b60006040820190508181036000830152612ec38185612343565b9050612ed260208301846120f1565b9392505050565b7f41646472657373206973206e6f74206120726573656172636865720000000000600082015250565b6000612f0f601b83612332565b9150612f1a82612ed9565b602082019050919050565b60006020820190508181036000830152612f3e81612f02565b9050919050565b7f43616e6e6f742072656d6f7665206f776e65722061732072657365617263686560008201527f7200000000000000000000000000000000000000000000000000000000000000602082015250565b6000612fa1602183612332565b9150612fac82612f45565b604082019050919050565b60006020820190508181036000830152612fd081612f94565b905091905056fea2646970667358221220069f93c98924c3f86bb3f730bf05251240f1be5c7d3c528623659d29c888e1b264736f6c63430008130033",
  "linkReferences": {},
  "deployedLinkReferences": {}
}