{
  "_format": "hh-sol-artifact-1",
  "contractName": "AcademicCertificate",
  "sourceName": "contracts/AcademicCertificate.sol",
  "abi": [
    {
      "inputs": [],
      "stateMutability": "nonpayable",
      "type": "constructor"
    },
    {
      "anonymous": false,
      "inputs": [
        {
          "indexed": true,
          "internalType": "bytes32",
          "name": "certificateId",
          "type": "bytes32"
        },
        {
          "indexed": false,
          "internalType": "string",
          "name": "studentName",
          "type": "string"
        },
        {
          "indexed": false,
          "internalType": "string",
          "name": "courseName",
          "type": "string"
        },
        {
          "indexed": false,
          "internalType": "address",
          "name": "issuer",
          "type": "address"
        }
      ],
      "name": "CertificateIssued",
      "type": "event"
    },
    {
      "anonymous": false,
      "inputs": [
        {
          "indexed": true,
          "internalType": "bytes32",
          "name": "certificateId",
          "type": "bytes32"
        },
        {
          "indexed": false,
          "internalType": "address",
          "name": "revoker",
          "type": "address"
        }
      ],
      "name": "CertificateRevoked",
      "type": "event"
    },
    {
      "anonymous": false,
      "inputs": [
        {
          "indexed": false,
          "internalType": "address",
          "name": "issuer",
          "type": "address"
        }
      ],
      "name": "IssuerAdded",
      "type": "event"
    },
    {
      "anonymous": false,
      "inputs": [
        {
          "indexed": false,
          "internalType": "address",
          "name": "issuer",
          "type": "address"
        }
      ],
      "name": "IssuerRemoved",
      "type": "event"
    },
    {
      "inputs": [
        {
          "internalType": "address",
          "name": "_issuer",
          "type": "address"
        }
      ],
      "name": "addIssuer",
      "outputs": [],
      "stateMutability": "nonpayable",
      "type": "function"
    },
    {
      "inputs": [
        {
          "internalType": "uint256",
          "name": "",
          "type": "uint256"
        }
      ],
      "name": "certificateIds",
      "outputs": [
        {
          "internalType": "bytes32",
          "name": "",
          "type": "bytes32"
        }
      ],
      "stateMutability": "view",
      "type": "function"
    },
    {
      "inputs": [
        {
          "internalType": "bytes32",
          "name": "",
          "type": "bytes32"
        }
      ],
      "name": "certificates",
      "outputs": [
        {
          "internalType": "string",
          "name": "studentName",
          "type": "string"
        },
        {
          "internalType": "string",
          "name": "courseName",
          "type": "string"
        },
        {
          "internalType": "string",
          "name": "issueDate",
          "type": "string"
        },
        {
          "internalType": "address",
          "name": "issuer",
          "type": "address"
        },
        {
          "internalType": "string",
          "name": "certificateHash",
          "type": "string"
        },
        {
          "internalType": "bool",
          "name": "isValid",
          "type": "bool"
        },
        {
          "internalType": "string",
          "name": "additionalData",
          "type": "string"
        }
      ],
      "stateMutability": "view",
      "type": "function"
    },
    {
      "inputs": [],
      "name": "getCertificateCount",
      "outputs": [
        {
          "internalType": "uint256",
          "name": "",
          "type": "uint256"
        }
      ],
      "stateMutability": "view",
      "type": "function"
    },
    {
      "inputs": [
        {
          "internalType": "uint256",
          "name": "_index",
          "type": "uint256"
        }
      ],
      "name": "getCertificateIdAtIndex",
      "outputs": [
        {
          "internalType": "bytes32",
          "name": "",
          "type": "bytes32"
        }
      ],
      "stateMutability": "view",
      "type": "function"
    },
    {
      "inputs": [
        {
          "internalType": "string",
          "name": "_studentName",
          "type": "string"
        },
        {
          "internalType": "string",
          "name": "_courseName",
          "type": "string"
        },
        {
          "internalType": "string",
          "name": "_issueDate",
          "type": "string"
        },
        {
          "internalType": "string",
          "name": "_certificateHash",
          "type": "string"
        },
        {
          "internalType": "string",
          "name": "_additionalData",
          "type": "string"
        }
      ],
      "name": "issueCertificate",
      "outputs": [
        {
          "internalType": "bytes32",
          "name": "",
          "type": "bytes32"
        }
      ],
      "stateMutability": "nonpayable",
      "type": "function"
    },
    {
      "inputs": [
        {
          "internalType": "address",
          "name": "",
          "type": "address"
        }
      ],
      "name": "issuers",
      "outputs": [
        {
          "internalType": "bool",
          "name": "",
          "type": "bool"
        }
      ],
      "stateMutability": "view",
      "type": "function"
    },
    {
      "inputs": [],
      "name": "owner",
      "outputs": [
        {
          "internalType": "address",
          "name": "",
          "type": "address"
        }
      ],
      "stateMutability": "view",
      "type": "function"
    },
    {
      "inputs": [
        {
          "internalType": "address",
          "name": "_issuer",
          "type": "address"
        }
      ],
      "name": "removeIssuer",
      "outputs": [],
      "stateMutability": "nonpayable",
      "type": "function"
    },
    {
      "inputs": [
        {
          "internalType": "bytes32",
          "name": "_certificateId",
          "type": "bytes32"
        }
      ],
      "name": "revokeCertificate",
      "outputs": [],
      "stateMutability": "nonpayable",
      "type": "function"
    },
    {
      "inputs": [
        {
          "internalType": "address",
          "name": "_newOwner",
          "type": "address"
        }
      ],
      "name": "transferOwnership",
      "outputs": [],
      "stateMutability": "nonpayable",
      "type": "function"
    },
    {
      "inputs": [
        {
          "internalType": "bytes32",
          "name": "_certificateId",
          "type": "bytes32"
        }
      ],
      "name": "verifyCertificate",
      "outputs": [
        {
          "internalType": "bool",
          "name": "isValid",
          "type": "bool"
        },
        {
          "components": [
            {
              "internalType": "string",
              "name": "studentName",
              "type": "string"
            },
            {
              "internalType": "string",
              "name": "courseName",
              "type": "string"
            },
            {
              "internalType": "string",
              "name": "issueDate",
              "type": "string"
            },
            {
              "internalType": "address",
              "name": "issuer",
              "type": "address"
            },
            {
              "internalType": "string",
              "name": "certificateHash",
              "type": "string"
            },
            {
              "internalType": "bool",
              "name": "isValid",
              "type": "bool"
            },
            {
              "internalType": "string",
              "name": "additionalData",
              "type": "string"
            }
          ],
          "internalType": "struct AcademicCertificate.Certificate",
          "name": "cert",
          "type": "tuple"
        }
      ],
      "stateMutability": "view",
      "type": "function"
    },
    {
      "inputs": [
        {
          "internalType": "string",
          "name": "_certificateHash",
          "type": "string"
        }
      ],
      "name": "verifyCertificateByHash",
      "outputs": [
        {
          "internalType": "bool",
          "name": "found",
          "type": "bool"
        },
        {
          "internalType": "bytes32",
          "name": "certificateId",
          "type": "bytes32"
        }
      ],
      "stateMutability": "view",
      "type": "function"
    }
  ],
  "bytecode": "0x608060405234801561001057600080fd5b50336000806101000a81548173ffffffffffffffffffffffffffffffffffffffff021916908373ffffffffffffffffffffffffffffffffffffffff16021790555060018060003373ffffffffffffffffffffffffffffffffffffffff1673ffffffffffffffffffffffffffffffffffffffff16815260200190815260200160002060006101000a81548160ff021916908315150217905550612c4e806100b76000396000f3fe608060405234801561001057600080fd5b50600436106100cf5760003560e01c806351ab415f1161008c5780638809f727116100665780638809f727146102645780638da5cb5b14610282578063c6cbc52a146102a0578063f2fde38b146102bc576100cf565b806351ab415f146101cc578063742f0688146101fd578063850c176814610233576100cf565b80630f9c774d146100d457806320694db014610104578063353181581461012057806338a7543e146101505780633dce82991461018057806347bc7093146101b0575b600080fd5b6100ee60048036038101906100e99190611950565b6102d8565b6040516100fb9190611996565b60405180910390f35b61011e60048036038101906101199190611a0f565b6102fc565b005b61013a60048036038101906101359190611b82565b610517565b6040516101479190611996565b60405180910390f35b61016a60048036038101906101659190611a0f565b61094a565b6040516101779190611ca4565b60405180910390f35b61019a60048036038101906101959190611950565b61096a565b6040516101a79190611996565b60405180910390f35b6101ca60048036038101906101c59190611a0f565b6109d9565b005b6101e660048036038101906101e19190611cbf565b610c13565b6040516101f4929190611d08565b60405180910390f35b61021760048036038101906102129190611d5d565b610ce7565b60405161022a9796959493929190611e18565b60405180910390f35b61024d60048036038101906102489190611d5d565b610ffe565b60405161025b929190611fca565b60405180910390f35b61026c6113f2565b6040516102799190612009565b60405180910390f35b61028a6113ff565b6040516102979190612024565b60405180910390f35b6102ba60048036038101906102b59190611d5d565b611423565b005b6102d660048036038101906102d19190611a0f565b611771565b005b600381815481106102e857600080fd5b906000526020600020016000915090505481565b60008054906101000a900473ffffffffffffffffffffffffffffffffffffffff1673ffffffffffffffffffffffffffffffffffffffff163373ffffffffffffffffffffffffffffffffffffffff161461038a576040517f08c379a0000000000000000000000000000000000000000000000000000000008152600401610381906120b1565b60405180910390fd5b600073ffffffffffffffffffffffffffffffffffffffff168173ffffffffffffffffffffffffffffffffffffffff16036103f9576040517f08c379a00000000000000000000000000000000000000000000000000000000081526004016103f09061211d565b60405180910390fd5b600160008273ffffffffffffffffffffffffffffffffffffffff1673ffffffffffffffffffffffffffffffffffffffff16815260200190815260200160002060009054906101000a900460ff1615610486576040517f08c379a000000000000000000000000000000000000000000000000000000000815260040161047d90612189565b60405180910390fd5b60018060008373ffffffffffffffffffffffffffffffffffffffff1673ffffffffffffffffffffffffffffffffffffffff16815260200190815260200160002060006101000a81548160ff0219169083151502179055507f05e7c881d716bee8cb7ed92293133ba156704252439e5c502c277448f04e20c28160405161050c9190612024565b60405180910390a150565b6000600160003373ffffffffffffffffffffffffffffffffffffffff1673ffffffffffffffffffffffffffffffffffffffff16815260200190815260200160002060009054906101000a900460ff16806105bc575060008054906101000a900473ffffffffffffffffffffffffffffffffffffffff1673ffffffffffffffffffffffffffffffffffffffff163373ffffffffffffffffffffffffffffffffffffffff16145b6105fb576040517f08c379a00000000000000000000000000000000000000000000000000000000081526004016105f29061221b565b60405180910390fd5b600086511161063f576040517f08c379a000000000000000000000000000000000000000000000000000000000815260040161063690612287565b60405180910390fd5b6000855111610683576040517f08c379a000000000000000000000000000000000000000000000000000000000815260040161067a906122f3565b60405180910390fd5b60008351116106c7576040517f08c379a00000000000000000000000000000000000000000000000000000000081526004016106be9061235f565b60405180910390fd5b60008686868633426040516020016106e496959493929190612424565b604051602081830303815290604052805190602001209050600073ffffffffffffffffffffffffffffffffffffffff166002600083815260200190815260200160002060030160009054906101000a900473ffffffffffffffffffffffffffffffffffffffff1673ffffffffffffffffffffffffffffffffffffffff16146107a1576040517f08c379a0000000000000000000000000000000000000000000000000000000008152600401610798906124d0565b60405180910390fd5b6040518060e001604052808881526020018781526020018681526020013373ffffffffffffffffffffffffffffffffffffffff1681526020018581526020016001151581526020018481525060026000838152602001908152602001600020600082015181600001908161081591906126fc565b50602082015181600101908161082b91906126fc565b50604082015181600201908161084191906126fc565b5060608201518160030160006101000a81548173ffffffffffffffffffffffffffffffffffffffff021916908373ffffffffffffffffffffffffffffffffffffffff160217905550608082015181600401908161089e91906126fc565b5060a08201518160050160006101000a81548160ff02191690831515021790555060c08201518160060190816108d491906126fc565b509050506003819080600181540180825580915050600190039060005260206000200160009091909190915055807f5c0348c216b5b88507abf395e257e83bd172cf494232657701d427410d12a8e2888833604051610935939291906127ce565b60405180910390a28091505095945050505050565b60016020528060005260406000206000915054906101000a900460ff1681565b600060038054905082106109b3576040517f08c379a00000000000000000000000000000000000000000000000000000000081526004016109aa9061285f565b60405180910390fd5b600382815481106109c7576109c661287f565b5b90600052602060002001549050919050565b60008054906101000a900473ffffffffffffffffffffffffffffffffffffffff1673ffffffffffffffffffffffffffffffffffffffff163373ffffffffffffffffffffffffffffffffffffffff1614610a67576040517f08c379a0000000000000000000000000000000000000000000000000000000008152600401610a5e906120b1565b60405180910390fd5b600160008273ffffffffffffffffffffffffffffffffffffffff1673ffffffffffffffffffffffffffffffffffffffff16815260200190815260200160002060009054906101000a900460ff16610af3576040517f08c379a0000000000000000000000000000000000000000000000000000000008152600401610aea906128fa565b60405180910390fd5b60008054906101000a900473ffffffffffffffffffffffffffffffffffffffff1673ffffffffffffffffffffffffffffffffffffffff168173ffffffffffffffffffffffffffffffffffffffff1603610b81576040517f08c379a0000000000000000000000000000000000000000000000000000000008152600401610b7890612966565b60405180910390fd5b6000600160008373ffffffffffffffffffffffffffffffffffffffff1673ffffffffffffffffffffffffffffffffffffffff16815260200190815260200160002060006101000a81548160ff0219169083151502179055507faf66545c919a3be306ee446d8f42a9558b5b022620df880517bc9593ec0f2d5281604051610c089190612024565b60405180910390a150565b60008060005b600380549050811015610cd357600060038281548110610c3c57610c3b61287f565b5b9060005260206000200154905084604051602001610c5a9190612986565b6040516020818303038152906040528051906020012060026000838152602001908152602001600020600401604051602001610c969190612a20565b6040516020818303038152906040528051906020012003610cbf57600181935093505050610ce2565b508080610ccb90612a66565b915050610c19565b506000808060001b9050915091505b915091565b6002602052806000526040600020600091509050806000018054610d0a9061251f565b80601f0160208091040260200160405190810160405280929190818152602001828054610d369061251f565b8015610d835780601f10610d5857610100808354040283529160200191610d83565b820191906000526020600020905b815481529060010190602001808311610d6657829003601f168201915b505050505090806001018054610d989061251f565b80601f0160208091040260200160405190810160405280929190818152602001828054610dc49061251f565b8015610e115780601f10610de657610100808354040283529160200191610e11565b820191906000526020600020905b815481529060010190602001808311610df457829003601f168201915b505050505090806002018054610e269061251f565b80601f0160208091040260200160405190810160405280929190818152602001828054610e529061251f565b8015610e9f5780601f10610e7457610100808354040283529160200191610e9f565b820191906000526020600020905b815481529060010190602001808311610e8257829003601f168201915b5050505050908060030160009054906101000a900473ffffffffffffffffffffffffffffffffffffffff1690806004018054610eda9061251f565b80601f0160208091040260200160405190810160405280929190818152602001828054610f069061251f565b8015610f535780601f10610f2857610100808354040283529160200191610f53565b820191906000526020600020905b815481529060010190602001808311610f3657829003601f168201915b5050505050908060050160009054906101000a900460ff1690806006018054610f7b9061251f565b80601f0160208091040260200160405190810160405280929190818152602001828054610fa79061251f565b8015610ff45780601f10610fc957610100808354040283529160200191610ff4565b820191906000526020600020905b815481529060010190602001808311610fd757829003601f168201915b5050505050905087565b60006110086118b1565b600260008481526020019081526020016000206040518060e00160405290816000820180546110369061251f565b80601f01602080910402602001604051908101604052809291908181526020018280546110629061251f565b80156110af5780601f10611084576101008083540402835291602001916110af565b820191906000526020600020905b81548152906001019060200180831161109257829003601f168201915b505050505081526020016001820180546110c89061251f565b80601f01602080910402602001604051908101604052809291908181526020018280546110f49061251f565b80156111415780601f1061111657610100808354040283529160200191611141565b820191906000526020600020905b81548152906001019060200180831161112457829003601f168201915b5050505050815260200160028201805461115a9061251f565b80601f01602080910402602001604051908101604052809291908181526020018280546111869061251f565b80156111d35780601f106111a8576101008083540402835291602001916111d3565b820191906000526020600020905b8154815290600101906020018083116111b657829003601f168201915b505050505081526020016003820160009054906101000a900473ffffffffffffffffffffffffffffffffffffffff1673ffffffffffffffffffffffffffffffffffffffff1673ffffffffffffffffffffffffffffffffffffffff1681526020016004820180546112429061251f565b80601f016020809104026020016040519081016040528092919081815260200182805461126e9061251f565b80156112bb5780601f10611290576101008083540402835291602001916112bb565b820191906000526020600020905b81548152906001019060200180831161129e57829003601f168201915b505050505081526020016005820160009054906101000a900460ff161515151581526020016006820180546112ef9061251f565b80601f016020809104026020016040519081016040528092919081815260200182805461131b9061251f565b80156113685780601f1061133d57610100808354040283529160200191611368565b820191906000526020600020905b81548152906001019060200180831161134b57829003601f168201915b5050505050815250509050600073ffffffffffffffffffffffffffffffffffffffff16816060015173ffffffffffffffffffffffffffffffffffffffff16036113e6576040517f08c379a00000000000000000000000000000000000000000000000000000000081526004016113dd90612afa565b60405180910390fd5b8060a001519150915091565b6000600380549050905090565b60008054906101000a900473ffffffffffffffffffffffffffffffffffffffff1681565b600160003373ffffffffffffffffffffffffffffffffffffffff1673ffffffffffffffffffffffffffffffffffffffff16815260200190815260200160002060009054906101000a900460ff16806114c6575060008054906101000a900473ffffffffffffffffffffffffffffffffffffffff1673ffffffffffffffffffffffffffffffffffffffff163373ffffffffffffffffffffffffffffffffffffffff16145b611505576040517f08c379a00000000000000000000000000000000000000000000000000000000081526004016114fc9061221b565b60405180910390fd5b600073ffffffffffffffffffffffffffffffffffffffff166002600083815260200190815260200160002060030160009054906101000a900473ffffffffffffffffffffffffffffffffffffffff1673ffffffffffffffffffffffffffffffffffffffff16036115aa576040517f08c379a00000000000000000000000000000000000000000000000000000000081526004016115a190612afa565b60405180910390fd5b6002600082815260200190815260200160002060050160009054906101000a900460ff1661160d576040517f08c379a000000000000000000000000000000000000000000000000000000000815260040161160490612b66565b60405180910390fd5b3373ffffffffffffffffffffffffffffffffffffffff166002600083815260200190815260200160002060030160009054906101000a900473ffffffffffffffffffffffffffffffffffffffff1673ffffffffffffffffffffffffffffffffffffffff1614806116c8575060008054906101000a900473ffffffffffffffffffffffffffffffffffffffff1673ffffffffffffffffffffffffffffffffffffffff163373ffffffffffffffffffffffffffffffffffffffff16145b611707576040517f08c379a00000000000000000000000000000000000000000000000000000000081526004016116fe90612bf8565b60405180910390fd5b60006002600083815260200190815260200160002060050160006101000a81548160ff021916908315150217905550807f1dbd7f0554a6447214abb6405781d5ee119037a7024fcb7fffd542c3c12cd776336040516117669190612024565b60405180910390a250565b60008054906101000a900473ffffffffffffffffffffffffffffffffffffffff1673ffffffffffffffffffffffffffffffffffffffff163373ffffffffffffffffffffffffffffffffffffffff16146117ff576040517f08c379a00000000000000000000000000000000000000000000000000000000081526004016117f6906120b1565b60405180910390fd5b600073ffffffffffffffffffffffffffffffffffffffff168173ffffffffffffffffffffffffffffffffffffffff160361186e576040517f08c379a00000000000000000000000000000000000000000000000000000000081526004016118659061211d565b60405180910390fd5b806000806101000a81548173ffffffffffffffffffffffffffffffffffffffff021916908373ffffffffffffffffffffffffffffffffffffffff16021790555050565b6040518060e00160405280606081526020016060815260200160608152602001600073ffffffffffffffffffffffffffffffffffffffff16815260200160608152602001600015158152602001606081525090565b6000604051905090565b600080fd5b600080fd5b6000819050919050565b61192d8161191a565b811461193857600080fd5b50565b60008135905061194a81611924565b92915050565b60006020828403121561196657611965611910565b5b60006119748482850161193b565b91505092915050565b6000819050919050565b6119908161197d565b82525050565b60006020820190506119ab6000830184611987565b92915050565b600073ffffffffffffffffffffffffffffffffffffffff82169050919050565b60006119dc826119b1565b9050919050565b6119ec816119d1565b81146119f757600080fd5b50565b600081359050611a09816119e3565b92915050565b600060208284031215611a2557611a24611910565b5b6000611a33848285016119fa565b91505092915050565b600080fd5b600080fd5b6000601f19601f8301169050919050565b7f4e487b7100000000000000000000000000000000000000000000000000000000600052604160045260246000fd5b611a8f82611a46565b810181811067ffffffffffffffff82111715611aae57611aad611a57565b5b80604052505050565b6000611ac1611906565b9050611acd8282611a86565b919050565b600067ffffffffffffffff821115611aed57611aec611a57565b5b611af682611a46565b9050602081019050919050565b82818337600083830152505050565b6000611b25611b2084611ad2565b611ab7565b905082815260208101848484011115611b4157611b40611a41565b5b611b4c848285611b03565b509392505050565b600082601f830112611b6957611b68611a3c565b5b8135611b79848260208601611b12565b91505092915050565b600080600080600060a08688031215611b9e57611b9d611910565b5b600086013567ffffffffffffffff811115611bbc57611bbb611915565b5b611bc888828901611b54565b955050602086013567ffffffffffffffff811115611be957611be8611915565b5b611bf588828901611b54565b945050604086013567ffffffffffffffff811115611c1657611c15611915565b5b611c2288828901611b54565b935050606086013567ffffffffffffffff811115611c4357611c42611915565b5b611c4f88828901611b54565b925050608086013567ffffffffffffffff811115611c7057611c6f611915565b5b611c7c88828901611b54565b9150509295509295909350565b60008115159050919050565b611c9e81611c89565b82525050565b6000602082019050611cb96000830184611c95565b92915050565b600060208284031215611cd557611cd4611910565b5b600082013567ffffffffffffffff811115611cf357611cf2611915565b5b611cff84828501611b54565b91505092915050565b6000604082019050611d1d6000830185611c95565b611d2a6020830184611987565b9392505050565b611d3a8161197d565b8114611d4557600080fd5b50565b600081359050611d5781611d31565b92915050565b600060208284031215611d7357611d72611910565b5b6000611d8184828501611d48565b91505092915050565b600081519050919050565b600082825260208201905092915050565b60005b83811015611dc4578082015181840152602081019050611da9565b60008484015250505050565b6000611ddb82611d8a565b611de58185611d95565b9350611df5818560208601611da6565b611dfe81611a46565b840191505092915050565b611e12816119d1565b82525050565b600060e0820190508181036000830152611e32818a611dd0565b90508181036020830152611e468189611dd0565b90508181036040830152611e5a8188611dd0565b9050611e696060830187611e09565b8181036080830152611e7b8186611dd0565b9050611e8a60a0830185611c95565b81810360c0830152611e9c8184611dd0565b905098975050505050505050565b600082825260208201905092915050565b6000611ec682611d8a565b611ed08185611eaa565b9350611ee0818560208601611da6565b611ee981611a46565b840191505092915050565b611efd816119d1565b82525050565b611f0c81611c89565b82525050565b600060e0830160008301518482036000860152611f2f8282611ebb565b91505060208301518482036020860152611f498282611ebb565b91505060408301518482036040860152611f638282611ebb565b9150506060830151611f786060860182611ef4565b5060808301518482036080860152611f908282611ebb565b91505060a0830151611fa560a0860182611f03565b5060c083015184820360c0860152611fbd8282611ebb565b9150508091505092915050565b6000604082019050611fdf6000830185611c95565b8181036020830152611ff18184611f12565b90509392505050565b6120038161191a565b82525050565b600060208201905061201e6000830184611ffa565b92915050565b60006020820190506120396000830184611e09565b92915050565b7f4f6e6c7920746865206f776e65722063616e2063616c6c20746869732066756e60008201527f6374696f6e000000000000000000000000000000000000000000000000000000602082015250565b600061209b602583611d95565b91506120a68261203f565b604082019050919050565b600060208201905081810360008301526120ca8161208e565b9050919050565b7f496e76616c696420616464726573730000000000000000000000000000000000600082015250565b6000612107600f83611d95565b9150612112826120d1565b602082019050919050565b60006020820190508181036000830152612136816120fa565b9050919050565b7f4164647265737320697320616c726561647920616e2069737375657200000000600082015250565b6000612173601c83611d95565b915061217e8261213d565b602082019050919050565b600060208201905081810360008301526121a281612166565b9050919050565b7f4f6e6c7920617574686f72697a656420697373756572732063616e2063616c6c60008201527f20746869732066756e6374696f6e000000000000000000000000000000000000602082015250565b6000612205602e83611d95565b9150612210826121a9565b604082019050919050565b60006020820190508181036000830152612234816121f8565b9050919050565b7f53747564656e74206e616d652063616e6e6f7420626520656d70747900000000600082015250565b6000612271601c83611d95565b915061227c8261223b565b602082019050919050565b600060208201905081810360008301526122a081612264565b9050919050565b7f436f75727365206e616d652063616e6e6f7420626520656d7074790000000000600082015250565b60006122dd601b83611d95565b91506122e8826122a7565b602082019050919050565b6000602082019050818103600083015261230c816122d0565b9050919050565b7f436572746966696361746520686173682063616e6e6f7420626520656d707479600082015250565b6000612349602083611d95565b915061235482612313565b602082019050919050565b600060208201905081810360008301526123788161233c565b9050919050565b600081905092915050565b600061239582611d8a565b61239f818561237f565b93506123af818560208601611da6565b80840191505092915050565b60008160601b9050919050565b60006123d3826123bb565b9050919050565b60006123e5826123c8565b9050919050565b6123fd6123f8826119d1565b6123da565b82525050565b6000819050919050565b61241e6124198261191a565b612403565b82525050565b6000612430828961238a565b915061243c828861238a565b9150612448828761238a565b9150612454828661238a565b915061246082856123ec565b601482019150612470828461240d565b602082019150819050979650505050505050565b7f436572746966696361746520494420616c726561647920657869737473000000600082015250565b60006124ba601d83611d95565b91506124c582612484565b602082019050919050565b600060208201905081810360008301526124e9816124ad565b9050919050565b7f4e487b7100000000000000000000000000000000000000000000000000000000600052602260045260246000fd5b6000600282049050600182168061253757607f821691505b60208210810361254a576125496124f0565b5b50919050565b60008190508160005260206000209050919050565b60006020601f8301049050919050565b600082821b905092915050565b6000600883026125b27fffffffffffffffffffffffffffffffffffffffffffffffffffffffffffffffff82612575565b6125bc8683612575565b95508019841693508086168417925050509392505050565b6000819050919050565b60006125f96125f46125ef8461191a565b6125d4565b61191a565b9050919050565b6000819050919050565b612613836125de565b61262761261f82612600565b848454612582565b825550505050565b600090565b61263c61262f565b61264781848461260a565b505050565b5b8181101561266b57612660600082612634565b60018101905061264d565b5050565b601f8211156126b05761268181612550565b61268a84612565565b81016020851015612699578190505b6126ad6126a585612565565b83018261264c565b50505b505050565b600082821c905092915050565b60006126d3600019846008026126b5565b1980831691505092915050565b60006126ec83836126c2565b9150826002028217905092915050565b61270582611d8a565b67ffffffffffffffff81111561271e5761271d611a57565b5b612728825461251f565b61273382828561266f565b600060209050601f8311600181146127665760008415612754578287015190505b61275e85826126e0565b8655506127c6565b601f19841661277486612550565b60005b8281101561279c57848901518255600182019150602085019450602081019050612777565b868310156127b957848901516127b5601f8916826126c2565b8355505b6001600288020188555050505b505050505050565b600060608201905081810360008301526127e88186611dd0565b905081810360208301526127fc8185611dd0565b905061280b6040830184611e09565b949350505050565b7f496e646578206f7574206f6620626f756e647300000000000000000000000000600082015250565b6000612849601383611d95565b915061285482612813565b602082019050919050565b600060208201905081810360008301526128788161283c565b9050919050565b7f4e487b7100000000000000000000000000000000000000000000000000000000600052603260045260246000fd5b7f41646472657373206973206e6f7420616e206973737565720000000000000000600082015250565b60006128e4601883611d95565b91506128ef826128ae565b602082019050919050565b60006020820190508181036000830152612913816128d7565b9050919050565b7f43616e6e6f742072656d6f7665206f776e657220617320697373756572000000600082015250565b6000612950601d83611d95565b915061295b8261291a565b602082019050919050565b6000602082019050818103600083015261297f81612943565b9050919050565b6000612992828461238a565b915081905092915050565b600081546129aa8161251f565b6129b4818661237f565b945060018216600081146129cf57600181146129e457612a17565b60ff1983168652811515820286019350612a17565b6129ed85612550565b60005b83811015612a0f578154818901526001820191506020810190506129f0565b838801955050505b50505092915050565b6000612a2c828461299d565b915081905092915050565b7f4e487b7100000000000000000000000000000000000000000000000000000000600052601160045260246000fd5b6000612a718261191a565b91507fffffffffffffffffffffffffffffffffffffffffffffffffffffffffffffffff8203612aa357612aa2612a37565b5b600182019050919050565b7f436572746966696361746520646f6573206e6f74206578697374000000000000600082015250565b6000612ae4601a83611d95565b9150612aef82612aae565b602082019050919050565b60006020820190508181036000830152612b1381612ad7565b9050919050565b7f436572746966696361746520697320616c7265616479207265766f6b65640000600082015250565b6000612b50601e83611d95565b9150612b5b82612b1a565b602082019050919050565b60006020820190508181036000830152612b7f81612b43565b9050919050565b7f4f6e6c792074686520697373756572206f72206f776e65722063616e2072657660008201527f6f6b652074686973206365727469666963617465000000000000000000000000602082015250565b6000612be2603483611d95565b9150612bed82612b86565b604082019050919050565b60006020820190508181036000830152612c1181612bd5565b905091905056fea264697066735822122027d3bf4fafa6cb3b22a2aeaa2f1e7e79a1fc825d1cc86f648303a40d2d3f51d664736f6c63430008130033",
  "linkReferences": {},
  "deployedLinkReferences": {}
}